:1007140041542B435343533D2255435332220D0A34
:100724000041542B434D47463D310D0A0041542BA3
:10073400435343413F0D0A0041542B43534D503D15
:1007440031372C3136372C302C32350D0A004154D8
:100754002B434D47533D2230303331303033383022
:100764003033383030333430303337303033313065
:10077400303333303033383030333030303330305E
:10078400303333220D0A003643453836313046467D
:1007940046314138383430364332373546303235D5
:1007A40045333846463031003643453836313046D5
:1007B4004646314135464333384446333846433759
:1007C40039414438464630310036434538363130B5
:1007D400464646314135464333384446333846432A
:1007E40037344634454646303100486561727420DA
:1007F400526174653A20202020200053704F323A11
:100804002020202020202020202020005761726EEC
:10081400696E67204C203A20202020200057617206
:0E0824006E696E672048203A202020202000B8
:1009C900103253704F323A2020202020202020203E
:1009D9002020012A00012B00012C00012500012300
:1009E90064012628014600024B0000195600000048
:1009F90000000000000000000000000000000000EE
:060A0900000000000000E7
:100C59007C64EF4E60131CEC60087D0A1DED60F6A4
:090C690080FAEF1F70EC1E80E917
:010C7200225F
:100D2700D2940000D2930000C2940000C293000046
:010D37002299
:100D3800C2930000C2940000D2930000D294000035
:010D48002288
:100AD800E4FEEFA806088002C333D8FC30E704D24E
:100AE800948002C2940000D2930000C2930EBE0804
:100AF800E10000D2940000D2930000209404C200C8
:080B08008002D200C29300003C
:010B100022C2
:100B4700E4FFD294FE0000C2930000D2930000EFAE
:100B570025E0FF3094010F00000EBE08E80000C238
:100B6700930000D2940000D2930000C29300007E4D
:010B7700007D
:010B7800225A
:100B7900E4FFD294FE0000C2930000D2930000EF7C
:100B890025E0FF3094010F00000EBE08E80000C206
:100B9900930000C2940000D2930000C29300007E2B
:010BA900004B
:010BAA002228
:100C730000120D2700120AD800AF05120AD800AFE0
:0A0C830003120AD800120D380022F7
:100BDB00AB07AA06120D2700120AD800AF05120A9E
:100BEB00D8000BBB00010A00120D2700AF03120A3D
:0D0BFB00D800120B478E2D8F2E00020D38F2
:100CA400758920758DFD758BFDD28EC29FD29ED223
:060CB4009CD2AFD2AC227D
:100C8D0085530B85540C85550D120947E94A4B6068
:070C9D00037F01227F00220A
:100C32007B007A007956120D12EFD3941940027F8D
:100C420019E4FEEEC39F500974562EF8E4F60E80A6
:060C5200F2E4F54BF54C45
:010C58002279
:03002300020B11BC
:0B0B1100C0E0C0D075D000C000C007DD
:100B1C00AF99C2987456254CF8A607054CE54C7055
:100B2C0002054BD39418E54B94004006754B0075A9
:020B3C004C006B
:090B3E00D007D000D0D0D0E03285
:080003008F993099FDC299228A
:100CBA001205B06010F5993099FDC299740129F9AD
:060CCA00E43AFA80EB227F
:090A54007BFF120CBA7F017E0049
:040A5D008E168F174B
:100A6100E4F518F519C3E5199517E51895165025FC
:100A7100E4F583F582AF82AE83E4FCFD7B407A9C92
:100A8100F9F8D31206304003A380EA0519E519707D
:050A9100D4051880D01F
:010A9600223D
:1008BE00E546D394005003020946C2AFC2A9C2ABAB
:1008CE00120CA47A077914120A547A077925120A9F
:1008DE00547BFF7A077931120A567BFF7A07793CEF
:1008EE00120A567BFF7A077952120A56E546B40170
:1008FE00087BFF7A07798B8018E546B402087BFFE8
:10090E007A0779AC800BE546B403097BFF7A077949
:10091E00CD120CBA7F1A1200037F0A7E00120A5DF6
:10092E00C2AFC2ACE4F546754120120CD0D28CD2C7
:09093E008EE4F52CF52BF52A22BC
:10002600120C08120CD0120A977BFF7A0779FF7D13
:10003600107FC0120AA1D28CD28EE54A606BE4F51D
:100046004A754201E52424FE6013146032240270CE
:10005600580529E52964037050F529804CE529B433
:100066000209E523C3949650020523E5296401702D
:1000760038E52314FFE526C39F502E0526802AE582
:1000860029B40217E5262401FFE433FED3E5239FB6
:10009600EE6480F874809840021523E529B40109BE
:1000A600E526D3941E40021526E542608DE4F5420E
:1000B600E545700AE54DB4300E754D208009754D45
:1000C60020754E20754F20E52914700302023D1459
:1000D6007003020298240260030200407B0A7A0041
:1000E6007D067C007FAE7E00120C737F147E0012AC
:1000F6000C597D167C007FAE7E00120BDB852E82AE
:10010600852D830D7FAE7E00120BDBAE83AF827D25
:10011600641205C9EF252EFFEE352DFED3E5289492
:100126000AE527940050030201FBE52894C8E52759
:10013600940040030201FBE4F527F528C3EF94D0B1
:10014600EE94074010EF9410EE940E5008751403C9
:100156007515AC8042C3EF94D0EE94075012C37469
:10016600D09FFF74079EFE7C007D0A1205DB801C73
:10017600D3EF9410EE940E401E74D09FFF74079E2A
:10018600FEEF7803CEC313CE13D8F9FFC374AC9F2A
:10019600F51574039EF514AE14AF157C007D64123C
:1001A60005DBEF2430F537AE14AF157C007D641205
:1001B60005DB7E007F0ACFCDCFCECCCE1205DBEF9E
:1001C6002430F53875392EAE14AF157C007D0A1231
:1001D60005DBED2430F53A753B25C3E5159484E53A
:1001E6001494035022052AE52A9402401775460105
:1001F6007541318012753720753820753920753A6A
:1002060020753B20E4F52A120A977B007A00794D87
:100216007D037F8D120AA17B007A0079327D107FE3
:10022600C0120AA1E546D3940040061208BE020099
:1002360040754120020040120A977B007A00794DF2
:100246007D037F8D120AA1E52675F064842430F5BE
:1002560047E52675F06484E5F075F00A842430F5E8
:1002660048E52675F00A84E5F02430F549E547B4FB
:1002760030037547207BFF7A0879107D107FC01206
:100286000AA17B007A0079477D037FCD120AA1027D
:100296000040120A977B007A00794D7D037F8D120C
:1002A6000AA1E52375F064842430F52FE52375F063
:1002B6006484E5F075F00A842430F530E52375F0A2
:1002C6000A84E5F02430F531E52FB43003752F208C
:1002D6007BFF7A0879217D107FC0120AA17B007A04
:0D02E60000792F7D037FCD120AA102004098
:03001B000202F3EB
:1002F300C0E0C0F0C083C082C0D075D000C000C0D1
:0D03030001C002C003C004C005C006C00751
:10031000758DD8758BF0E5211460131460382402B4
:100320007042E59054076407603A05218036E590F5
:1003300054076407602B0521E590540724FD6011E4
:1003400024FE600814701D75240180187524028035
:1003500013752403800EE5905407FFBF0706754A06
:1003600001752100E52214601B146020146028141C
:1003700060302404600302059530B2030205950540
:100380002202059520B20D052202059520B2050531
:100390002202059502059220B2050522020595026A
:1003A000059220B203020595E5256401600302056C
:1003B00089AE43AF44AB07AA06F9F87F607EEAFD39
:1003C000FC120A10E47BC8FAF9F8C3120630500E8A
:1003D000754D2D754E2D754F2DD2A4020560AE437F
:1003E000AF44AB07AA06E4F9F87F607EEAFDFC1291
:1003F0000A10E47B64FAF9F8120A10EF2430F54D84
:10040000AE43AF44AB07AA06E4F9F87F607EEAFD8D
:10041000FC120A10E47B64FAF9F8120A10AC00AD81
:1004200001AE02AF03E47B0AFAF9F8120A10EF24D6
:1004300030F54EAE43AF44AB07AA06E4F9F87F604F
:100440007EEAFDFC120A10E47B0AFAF9F8120A109F
:10045000EB2430F54FAE43AF44AB07AA06E4F9F8FE
:100460007F607EEAFDFC120A10A804A905AA06AB6B
:1004700007AF23E4FCFDFEC3120630502BAE43AFA2
:1004800044AB07AA06E4F9F87F607EEAFDFC120A95
:1004900010A804A905AA06AB07AF26E4FCFDFED30D
:1004A0001206304003020558C2A4AE43AF44AB0766
:1004B000AA06E4F9F87F607EEAFDFC120A10A8049F
:1004C000A905AA06AB07AF23E4FCFDFEC312063064
:1004D000404BAE43AF44AB07AA06E4F9F87F607E19
:1004E000EAFDFC120A10A804A905AA06AB07AF236F
:1004F000E4FCFDFEC31206307E0040047F01800252
:100500007F00C3EF94C3EE648094805010052BE508
:100510002B9402400B7546027541328003752B0007
:10052000AE43AF44AB07AA06E4F9F87F607EEAFD6C
:10053000FC120A10A804A905AA06AB07AF26E4FC22
:10054000FDFED31206305015052CE52C9402401008
:100550007546037541338008D2A4752B00752C00B5
:10056000AE43AF44AB07AA06E4F9F87F607EEAFD2C
:10057000FC120A108E278F287542017543007544BE
:1005800000752500754500800975430075440075A8
:050590002501752200A9
:10059500D007D006D005D004D003D002D001D000BA
:0B05A500D0D0D082D083D0F0D0E03264
:03000B00020BAB3A
:100BAB00C0E0C0D0758CFC758A180544E544700212
:100BBB000543B48816E543B413117543007544001F
:100BCB00754201752500754501D2A4D0D0D0E03215
:100CD000D2AFD2A9D2AB758911758CFC758A187503
:060CE0008DD8758BF02297
:0A0A97007BFF7A0779EE7D107F8067
:080AA1008D168B178A188919C4
:100AA900E4F51A120CFCE4F51AE51AC39516501E62
:100AB900AB17AA18A9191205B0F51BFF120CE67499
:0E0AC900012519F519E43518F518051A80DB1A
:010AD70022FC
:100CE6008F1C12000EC2A7D2A5C2A600D2A7851CD1
:060CF60080C2A7C2A52286
:100CFC008F1C12000EC2A7C2A5C2A600D2A7851CCB
:060D0C0080C2A7C2A5226F
:100C080012000E12000E7F38120CFC7F38120CFCFA
:100C18007F38120CFC7F06120CFC7F0C120CFC7F38
:0A0C280001120CFC12000E02000E77
:08000E007FB97E0CDEFEDFFA73
:0100160022C7
:03000000020832C1
:0C083200787FE4F6D8FD75816E0208792D
:1005B000BB010689828A83E0225002E722BBFE0249
:0905C000E32289828A83E493227C
:1005C900EF8DF0A4A8F0CF8CF0A428CE8DF0A42E46
:0205D900FE2200
:1005DB00BC000BBE0029EF8DF084FFADF022E4CC04
:1005EB00F875F008EF2FFFEE33FEEC33FCEE9DECCD
:1005FB00984005FCEE9DFE0FD5F0E9E4CEFD22ED13
:10060B00F8F5F0EE8420D21CFEADF075F008EF2F5C
:10061B00FFED33FD4007985006D5F0F222C398FD4D
:05062B000FD5F0EA22EA
:100A1000C2D5E830E70FB2D5E4C39BFBE49AFAE411
:100A200099F9E498F8EC30E717B2D5120A461206A5
:100A300082E4C39BFBE49AFAE499F9E498F8800312
:100A400012068230D50DE4C39FFFE49EFEE49DFDB7
:040A5000E49CFC2204
:10063000EB9FF5F0EA9E42F0E99D42F0EC6480C841
:0606400064809845F022E1
:100D1200E4FFFE1205B0600C0FEF70010E09E970DE
:050D2200F20A80EF223F
:100947008B088A09890AAB0BAA0CA90D1205B0609E
:1009570063AB08AA09A90A1205B0605F850B0E856B
:100967000C0F850D108B118A128913AB0EAA0FA9D4
:10097700101205B0FF6023AB11AA12A9131205B01C
:100987006F7017042510F510E4350FF50F74012566
:1009970013F513E43512F51280D1AB0EAA0FA91087
:1009A7001205B07002800D7401250AF50AE43509B5
:1009B700F509809DAB08AA09A90A227B007A00796C
:0209C70000220C
:10083E00020026E493A3F8E493A34003F68001F2AA
:10084E0008DFF48029E493A3F85407240CC8C333BB
:10085E00C4540F4420C8834004F456800146F6DF8A
:10086E00E4800B01020408102040809009C9E47E48
:10087E00019360BCA3FF543F30E509541FFEE4937F
:10088E00A360010ECF54C025E060A840B8E493A346
:10089E00FAE493A3F8E493A3C8C582C8CAC583CA71
:1008AE00F0A3C8C582C8CAC583CADFE9DEE780BE29
:010A0F0000E6
:1006460075F008758200EF2FFFEE33FECD33CDCC6B
:1006560033CCC58233C5829BED9AEC99E5829840EE
:100666000CF582EE9BFEED9AFDEC99FC0FD5F0D6CB
:10067600E4CEFBE4CDFAE4CCF9A88222B800C1B9F5
:100686000059BA002DEC8BF084CFCECDFCE5F0CB33
:10069600F97818EF2FFFEE33FEED33FDEC33FCEB6C
:1006A60033FB10D703994004EB99FB0FD8E5E4F927
:1006B600FA227818EF2FFFEE33FEED33FDEC33FC14
:1006C600C933C910D7059BE99A4007EC9BFCE99A08
:1006D600F90FD8E0E4C9FAE4CCFB2275F010EF2F4D
:1006E600FFEE33FEED33FDCC33CCC833C810D7074D
:1006F6009BEC9AE899400AED9BFDEC9AFCE899F888
:0E0706000FD5F0DAE4CDFBE4CCFAE4C8F9221A
:00000001FF
